{
  "_format": "hh-sol-artifact-1",
  "contractName": "CSRAuctionHouseProxy",
  "sourceName": "contracts/additional/CSRAuctionHouseProxy.sol",
  "abi": [
    {
      "inputs": [
        {
          "internalType": "address",
          "name": "_weth",
          "type": "address"
        },
        {
          "internalType": "address",
          "name": "_nounsToken",
          "type": "address"
        },
        {
          "internalType": "address",
          "name": "_auctionHouseProxy",
          "type": "address"
        },
        {
          "internalType": "address",
          "name": "_turnstile",
          "type": "address"
        },
        {
          "internalType": "address",
          "name": "_treasury",
          "type": "address"
        }
      ],
      "stateMutability": "nonpayable",
      "type": "constructor"
    },
    {
      "inputs": [],
      "name": "auctionHouseProxy",
      "outputs": [
        {
          "internalType": "contract INounsAuctionHouse",
          "name": "",
          "type": "address"
        }
      ],
      "stateMutability": "view",
      "type": "function"
    },
    {
      "inputs": [
        {
          "internalType": "uint256",
          "name": "nounId",
          "type": "uint256"
        }
      ],
      "name": "createBid",
      "outputs": [],
      "stateMutability": "payable",
      "type": "function"
    },
    {
      "inputs": [],
      "name": "nounsToken",
      "outputs": [
        {
          "internalType": "contract INounsToken",
          "name": "",
          "type": "address"
        }
      ],
      "stateMutability": "view",
      "type": "function"
    },
    {
      "inputs": [],
      "name": "settleAuction",
      "outputs": [],
      "stateMutability": "nonpayable",
      "type": "function"
    },
    {
      "inputs": [],
      "name": "settleCurrentAndCreateNewAuction",
      "outputs": [],
      "stateMutability": "nonpayable",
      "type": "function"
    },
    {
      "inputs": [],
      "name": "weth",
      "outputs": [
        {
          "internalType": "address",
          "name": "",
          "type": "address"
        }
      ],
      "stateMutability": "view",
      "type": "function"
    }
  ],
  "bytecode": "0x60c060405234801561001057600080fd5b5060405161095e38038061095e83398101604081905261002f916100e7565b600080546001600160a01b0319166001600160a01b038781169190911790915584811660805283811660a052604051632210724360e11b8152828216600482015290831690634420e486906024016020604051808303816000875af115801561009c573d6000803e3d6000fd5b505050506040513d601f19601f820116820180604052508101906100c0919061014c565b505050505050610165565b80516001600160a01b03811681146100e257600080fd5b919050565b600080600080600060a086880312156100ff57600080fd5b610108866100cb565b9450610116602087016100cb565b9350610124604087016100cb565b9250610132606087016100cb565b9150610140608087016100cb565b90509295509295909350565b60006020828403121561015e57600080fd5b5051919050565b60805160a0516107b26101ac60003960008181607c015281816101960152818161026801526102f2015260008181610130015281816104f801526105e801526107b26000f3fe6080604052600436106100655760003560e01c8063a4d0a17e11610043578063a4d0a17e14610109578063ced9481f1461011e578063f25efffc1461015257600080fd5b8063101ff4cf1461006a5780633fc8cef3146100c7578063659dd2b4146100f4575b600080fd5b34801561007657600080fd5b5061009e7f000000000000000000000000000000000000000000000000000000000000000081565b60405173ffffffffffffffffffffffffffffffffffffffff909116815260200160405180910390f35b3480156100d357600080fd5b5060005461009e9073ffffffffffffffffffffffffffffffffffffffff1681565b6101076101023660046106d5565b610167565b005b34801561011557600080fd5b50610107610266565b34801561012a57600080fd5b5061009e7f000000000000000000000000000000000000000000000000000000000000000081565b34801561015e57600080fd5b506101076102f0565b6040517f659dd2b4000000000000000000000000000000000000000000000000000000008152600481018290527f000000000000000000000000000000000000000000000000000000000000000073ffffffffffffffffffffffffffffffffffffffff169063659dd2b49034906024016000604051808303818588803b1580156101f057600080fd5b505af1158015610204573d6000803e3d6000fd5b5047935050821591506102369050576001546102369073ffffffffffffffffffffffffffffffffffffffff1682610358565b50600180547fffffffffffffffffffffffff00000000000000000000000000000000000000001633179055600255565b7f000000000000000000000000000000000000000000000000000000000000000073ffffffffffffffffffffffffffffffffffffffff1663a4d0a17e6040518163ffffffff1660e01b8152600401600060405180830381600087803b1580156102ce57600080fd5b505af11580156102e2573d6000803e3d6000fd5b505050506102ee61048b565b565b7f000000000000000000000000000000000000000000000000000000000000000073ffffffffffffffffffffffffffffffffffffffff1663f25efffc6040518163ffffffff1660e01b8152600401600060405180830381600087803b1580156102ce57600080fd5b610362828261064a565b6104875760008054906101000a900473ffffffffffffffffffffffffffffffffffffffff1673ffffffffffffffffffffffffffffffffffffffff1663d0e30db0826040518263ffffffff1660e01b81526004016000604051808303818588803b1580156103ce57600080fd5b505af11580156103e2573d6000803e3d6000fd5b50506000546040517fa9059cbb00000000000000000000000000000000000000000000000000000000815273ffffffffffffffffffffffffffffffffffffffff878116600483015260248201879052909116935063a9059cbb925060440190506020604051808303816000875af1158015610461573d6000803e3d6000fd5b505050506040513d601f19601f8201168201806040525081019061048591906106ee565b505b5050565b4780156104b5576001546104b59073ffffffffffffffffffffffffffffffffffffffff1682610358565b6002546040517f6352211e00000000000000000000000000000000000000000000000000000000815260009173ffffffffffffffffffffffffffffffffffffffff7f00000000000000000000000000000000000000000000000000000000000000001691636352211e9161052f9160040190815260200190565b602060405180830381865afa15801561054c573d6000803e3d6000fd5b505050506040513d601f19601f820116820180604052508101906105709190610717565b90503073ffffffffffffffffffffffffffffffffffffffff821603610487576001546002546040517f23b872dd00000000000000000000000000000000000000000000000000000000815230600482015273ffffffffffffffffffffffffffffffffffffffff928316602482015260448101919091527f0000000000000000000000000000000000000000000000000000000000000000909116906323b872dd90606401600060405180830381600087803b15801561062e57600080fd5b505af1158015610642573d6000803e3d6000fd5b505050505050565b60408051600080825260208201909252819073ffffffffffffffffffffffffffffffffffffffff851690617530908590604051610687919061074d565b600060405180830381858888f193505050503d80600081146106c5576040519150601f19603f3d011682016040523d82523d6000602084013e6106ca565b606091505b509095945050505050565b6000602082840312156106e757600080fd5b5035919050565b60006020828403121561070057600080fd5b8151801515811461071057600080fd5b9392505050565b60006020828403121561072957600080fd5b815173ffffffffffffffffffffffffffffffffffffffff8116811461071057600080fd5b6000825160005b8181101561076e5760208186018101518583015201610754565b50600092019182525091905056fea26469706673582212206a4bca011e1e32e8589b9cc87161e0a546bbccd5a3400af7b4292b3648da684364736f6c63430008110033",
  "linkReferences": {},
  "deployedLinkReferences": {}
}